{
  "_format": "hh-sol-artifact-1",
  "contractName": "EthPool",
  "sourceName": "contracts/EthPool.sol",
  "abi": [
    {
      "inputs": [
        {
          "internalType": "contract DaiToken",
          "name": "_daiToken",
          "type": "address"
        }
      ],
      "stateMutability": "nonpayable",
      "type": "constructor"
    },
    {
      "inputs": [],
      "name": "RewardDepositTime",
      "outputs": [
        {
          "internalType": "uint256",
          "name": "",
          "type": "uint256"
        }
      ],
      "stateMutability": "view",
      "type": "function"
    },
    {
      "inputs": [],
      "name": "balanceOf",
      "outputs": [
        {
          "internalType": "uint256",
          "name": "",
          "type": "uint256"
        }
      ],
      "stateMutability": "view",
      "type": "function"
    },
    {
      "inputs": [
        {
          "internalType": "address",
          "name": "",
          "type": "address"
        }
      ],
      "name": "balances",
      "outputs": [
        {
          "internalType": "uint256",
          "name": "",
          "type": "uint256"
        }
      ],
      "stateMutability": "view",
      "type": "function"
    },
    {
      "inputs": [],
      "name": "daiToken",
      "outputs": [
        {
          "internalType": "contract DaiToken",
          "name": "",
          "type": "address"
        }
      ],
      "stateMutability": "view",
      "type": "function"
    },
    {
      "inputs": [
        {
          "internalType": "uint256",
          "name": "_amount",
          "type": "uint256"
        }
      ],
      "name": "depositRewards",
      "outputs": [],
      "stateMutability": "nonpayable",
      "type": "function"
    },
    {
      "inputs": [
        {
          "internalType": "address",
          "name": "",
          "type": "address"
        }
      ],
      "name": "depositers",
      "outputs": [
        {
          "internalType": "address",
          "name": "deposit_address",
          "type": "address"
        },
        {
          "internalType": "uint256",
          "name": "amount",
          "type": "uint256"
        },
        {
          "internalType": "uint256",
          "name": "time",
          "type": "uint256"
        }
      ],
      "stateMutability": "view",
      "type": "function"
    },
    {
      "inputs": [],
      "name": "name",
      "outputs": [
        {
          "internalType": "string",
          "name": "",
          "type": "string"
        }
      ],
      "stateMutability": "view",
      "type": "function"
    },
    {
      "inputs": [],
      "name": "rewards",
      "outputs": [
        {
          "internalType": "uint256",
          "name": "",
          "type": "uint256"
        }
      ],
      "stateMutability": "view",
      "type": "function"
    },
    {
      "inputs": [
        {
          "internalType": "uint256",
          "name": "_amount",
          "type": "uint256"
        }
      ],
      "name": "withdrawRewards",
      "outputs": [],
      "stateMutability": "nonpayable",
      "type": "function"
    },
    {
      "stateMutability": "payable",
      "type": "receive"
    }
  ],
  "bytecode": "0x60806040523480156200001157600080fd5b5060405162001357380380620013578339818101604052810190620000379190620001e5565b6040518060400160405280600781526020017f457468506f6f6c0000000000000000000000000000000000000000000000000081525060009080519060200190620000849291906200011e565b5033600160006101000a81548173ffffffffffffffffffffffffffffffffffffffff021916908373ffffffffffffffffffffffffffffffffffffffff16021790555080600260006101000a81548173ffffffffffffffffffffffffffffffffffffffff021916908373ffffffffffffffffffffffffffffffffffffffff1602179055506000600381905550600060058190555050620002d8565b8280546200012c9062000259565b90600052602060002090601f0160209004810192826200015057600085556200019c565b82601f106200016b57805160ff19168380011785556200019c565b828001600101855582156200019c579182015b828111156200019b5782518255916020019190600101906200017e565b5b509050620001ab9190620001af565b5090565b5b80821115620001ca576000816000905550600101620001b0565b5090565b600081519050620001df81620002be565b92915050565b600060208284031215620001f857600080fd5b60006200020884828501620001ce565b91505092915050565b60006200021e8262000239565b9050919050565b6000620002328262000211565b9050919050565b600073ffffffffffffffffffffffffffffffffffffffff82169050919050565b600060028204905060018216806200027257607f821691505b602082108114156200028957620002886200028f565b5b50919050565b7f4e487b7100000000000000000000000000000000000000000000000000000000600052602260045260246000fd5b620002c98162000225565b8114620002d557600080fd5b50565b61106f80620002e86000396000f3fe60806040526004361061008a5760003560e01c80638bdf67f2116100595780638bdf67f2146102c45780639342c8f4146102ed5780639ec5a89414610316578063bbb186d214610341578063be22f5461461036c576101ed565b806306fdde03146101f257806327e235e31461021d5780636384c0451461025a578063722713f714610299576101ed565b366101ed5760405180606001604052803373ffffffffffffffffffffffffffffffffffffffff16815260200134815260200142815250600760003373ffffffffffffffffffffffffffffffffffffffff1673ffffffffffffffffffffffffffffffffffffffff16815260200190815260200160002060008201518160000160006101000a81548173ffffffffffffffffffffffffffffffffffffffff021916908373ffffffffffffffffffffffffffffffffffffffff160217905550602082015181600101556040820151816002015590505034600660003373ffffffffffffffffffffffffffffffffffffffff1673ffffffffffffffffffffffffffffffffffffffff168152602001908152602001600020546101a89190610d52565b600660003373ffffffffffffffffffffffffffffffffffffffff1673ffffffffffffffffffffffffffffffffffffffff16815260200190815260200160002081905550005b600080fd5b3480156101fe57600080fd5b50610207610397565b6040516102149190610c89565b60405180910390f35b34801561022957600080fd5b50610244600480360381019061023f9190610ab0565b610425565b6040516102519190610d1b565b60405180910390f35b34801561026657600080fd5b50610281600480360381019061027c9190610ab0565b61043d565b60405161029093929190610c37565b60405180910390f35b3480156102a557600080fd5b506102ae610487565b6040516102bb9190610d1b565b60405180910390f35b3480156102d057600080fd5b506102eb60048036038101906102e69190610b02565b61048f565b005b3480156102f957600080fd5b50610314600480360381019061030f9190610b02565b6105c0565b005b34801561032257600080fd5b5061032b61097a565b6040516103389190610d1b565b60405180910390f35b34801561034d57600080fd5b50610356610980565b6040516103639190610d1b565b60405180910390f35b34801561037857600080fd5b50610381610986565b60405161038e9190610c6e565b60405180910390f35b600080546103a490610eac565b80601f01602080910402602001604051908101604052809291908181526020018280546103d090610eac565b801561041d5780601f106103f25761010080835404028352916020019161041d565b820191906000526020600020905b81548152906001019060200180831161040057829003601f168201915b505050505081565b60066020528060005260406000206000915090505481565b60076020528060005260406000206000915090508060000160009054906101000a900473ffffffffffffffffffffffffffffffffffffffff16908060010154908060020154905083565b600047905090565b600160009054906101000a900473ffffffffffffffffffffffffffffffffffffffff1673ffffffffffffffffffffffffffffffffffffffff163373ffffffffffffffffffffffffffffffffffffffff16146104e957600080fd5b600260009054906101000a900473ffffffffffffffffffffffffffffffffffffffff1673ffffffffffffffffffffffffffffffffffffffff166323b872dd3330846040518463ffffffff1660e01b815260040161054893929190610bd7565b602060405180830381600087803b15801561056257600080fd5b505af1158015610576573d6000803e3d6000fd5b505050506040513d601f19601f8201168201806040525081019061059a9190610ad9565b50806003546105a99190610d52565b600381905550426004819055504760058190555050565b6000600660003373ffffffffffffffffffffffffffffffffffffffff1673ffffffffffffffffffffffffffffffffffffffff16815260200190815260200160002054905080821115610647576040517f08c379a000000000000000000000000000000000000000000000000000000000815260040161063e90610cdb565b60405180910390fd5b600454600760003373ffffffffffffffffffffffffffffffffffffffff1673ffffffffffffffffffffffffffffffffffffffff16815260200190815260200160002060020154106106cd576040517f08c379a00000000000000000000000000000000000000000000000000000000081526004016106c490610cfb565b60405180910390fd5b61070e6040518060400160405280601a81526020017f6574682062616c206174207769746864726177206973202573200000000000008152506005546109ac565b60008160055461071e9190610da8565b90506000816003546107309190610da8565b90506107716040518060400160405280601481526020017f726577617264732073656e742020697320257320000000000000000000000000815250826109ac565b83600660003373ffffffffffffffffffffffffffffffffffffffff1673ffffffffffffffffffffffffffffffffffffffff168152602001908152602001600020546107bc9190610dd9565b600660003373ffffffffffffffffffffffffffffffffffffffff1673ffffffffffffffffffffffffffffffffffffffff1681526020019081526020016000208190555061087d6040518060400160405280601d81526020017f6d73672e73656e646572206574682062616c616e636520697320257320000000815250600660003373ffffffffffffffffffffffffffffffffffffffff1673ffffffffffffffffffffffffffffffffffffffff168152602001908152602001600020546109ac565b600260009054906101000a900473ffffffffffffffffffffffffffffffffffffffff1673ffffffffffffffffffffffffffffffffffffffff1663a9059cbb33836040518363ffffffff1660e01b81526004016108da929190610c0e565b602060405180830381600087803b1580156108f457600080fd5b505af1158015610908573d6000803e3d6000fd5b505050506040513d601f19601f8201168201806040525081019061092c9190610ad9565b503373ffffffffffffffffffffffffffffffffffffffff166108fc859081150290604051600060405180830381858888f19350505050158015610973573d6000803e3d6000fd5b5050505050565b60035481565b60045481565b600260009054906101000a900473ffffffffffffffffffffffffffffffffffffffff1681565b610a4482826040516024016109c2929190610cab565b6040516020818303038152906040527f9710a9d0000000000000000000000000000000000000000000000000000000007bffffffffffffffffffffffffffffffffffffffffffffffffffffffff19166020820180517bffffffffffffffffffffffffffffffffffffffffffffffffffffffff8381831617835250505050610a48565b5050565b60008151905060006a636f6e736f6c652e6c6f679050602083016000808483855afa5050505050565b600081359050610a8081610ff4565b92915050565b600081519050610a958161100b565b92915050565b600081359050610aaa81611022565b92915050565b600060208284031215610ac257600080fd5b6000610ad084828501610a71565b91505092915050565b600060208284031215610aeb57600080fd5b6000610af984828501610a86565b91505092915050565b600060208284031215610b1457600080fd5b6000610b2284828501610a9b565b91505092915050565b610b3481610e0d565b82525050565b610b4381610e55565b82525050565b6000610b5482610d36565b610b5e8185610d41565b9350610b6e818560208601610e79565b610b7781610f6b565b840191505092915050565b6000610b8f601d83610d41565b9150610b9a82610f7c565b602082019050919050565b6000610bb2603e83610d41565b9150610bbd82610fa5565b604082019050919050565b610bd181610e4b565b82525050565b6000606082019050610bec6000830186610b2b565b610bf96020830185610b2b565b610c066040830184610bc8565b949350505050565b6000604082019050610c236000830185610b2b565b610c306020830184610bc8565b9392505050565b6000606082019050610c4c6000830186610b2b565b610c596020830185610bc8565b610c666040830184610bc8565b949350505050565b6000602082019050610c836000830184610b3a565b92915050565b60006020820190508181036000830152610ca38184610b49565b905092915050565b60006040820190508181036000830152610cc58185610b49565b9050610cd46020830184610bc8565b9392505050565b60006020820190508181036000830152610cf481610b82565b9050919050565b60006020820190508181036000830152610d1481610ba5565b9050919050565b6000602082019050610d306000830184610bc8565b92915050565b600081519050919050565b600082825260208201905092915050565b6000610d5d82610e4b565b9150610d6883610e4b565b9250827fffffffffffffffffffffffffffffffffffffffffffffffffffffffffffffffff03821115610d9d57610d9c610ede565b5b828201905092915050565b6000610db382610e4b565b9150610dbe83610e4b565b925082610dce57610dcd610f0d565b5b828204905092915050565b6000610de482610e4b565b9150610def83610e4b565b925082821015610e0257610e01610ede565b5b828203905092915050565b6000610e1882610e2b565b9050919050565b60008115159050919050565b600073ffffffffffffffffffffffffffffffffffffffff82169050919050565b6000819050919050565b6000610e6082610e67565b9050919050565b6000610e7282610e2b565b9050919050565b60005b83811015610e97578082015181840152602081019050610e7c565b83811115610ea6576000848401525b50505050565b60006002820490506001821680610ec457607f821691505b60208210811415610ed857610ed7610f3c565b5b50919050565b7f4e487b7100000000000000000000000000000000000000000000000000000000600052601160045260246000fd5b7f4e487b7100000000000000000000000000000000000000000000000000000000600052601260045260246000fd5b7f4e487b7100000000000000000000000000000000000000000000000000000000600052602260045260246000fd5b6000601f19601f8301169050919050565b7f62616c616e63652063616e6e6f74206265206c657373207468616e2030000000600082015250565b7f796f75206465706f73697465642061667465722072657761726473206861766560008201527f206265656e206465706f73697465642c2063616e742077697468647261770000602082015250565b610ffd81610e0d565b811461100857600080fd5b50565b61101481610e1f565b811461101f57600080fd5b50565b61102b81610e4b565b811461103657600080fd5b5056fea2646970667358221220fb6d97bf67683e0400f6b339f12bff8f83cb012681759b451dc89493805a9b3664736f6c63430008030033",
  "linkReferences": {},
  "deployedLinkReferences": {}
}